:100000000C9434000C9451000C9451000C94510049
:100010000C9451000C9451000C9451000C9451001C
:100020000C9451000C9451000C9451000C9451000C
:100030000C9451000C9451000C9451000C945100FC
:100040000C9451000C9451000C9450030C945703E1
:100050000C9451000C9451000C9451000C945100DC
:100060000C9451000C94510011241FBECFEFD4E02A
:10007000DEBFCDBF11E0A0E0B1E0E0E8F8E002C0F3
:1000800005900D92A031B107D9F721E0A0E1B1E0D0
:1000900001C01D92AF3CB207E1F70E94E2010C944F
:1000A00028040C940000CF93DF93C091CE01C2309E
:1000B00009F4DCC0C33009F451C1C13009F020C1DA
:1000C000D0911101EFEFED0FEE3050F4F0E0E65D6E
:1000D000FB4F0C942204C0911201C11105C05E9A1D
:1000E0008C2FDF91CF91089580916F018C1B990B1C
:1000F00023E046E06C2F8B5E9E4F0E94D6038091DA
:100100006F01865F90911201891B80936F01CD2F43
:10011000E7CF80911201811114C05E9A60911201A3
:1001200080916F01861B990B24E044E08B5E9E4F0B
:100130000E94D60380916F01875F90911201891B05
:100140000FC05F9AEBCF809112018111C9CF8091CE
:100150006F01E82FF0E0EB5EFE4F9EE490838F5F2F
:1001600080936F01BDCF6091120180916F01861B5A
:10017000990B24E045E08B5E9E4F0E94D603809150
:100180006F01865FA8C0809112018111A9CF809173
:100190006F01E82FF0E0EB5EFE4F95E4DFCF60915A
:1001A000120180916F01861B990B42E08B5E9E4F7E
:1001B0000E94CD0380916F018E5FBFCF60911201CD
:1001C00080916F01861B990B21E042E08B5E9E4F70
:1001D0000E94D60380916F018C5FAFCF60911201B6
:1001E00080916F01861B990B21E045E08B5E9E4F4D
:1001F0000E94D60380916F01895F9FCF60911201A9
:1002000080916F01861B990B21E044E08B5E9E4F2D
:100210000E94D60380916F018A5F8FCF8091120177
:1002200081115ECF80916F01E82FF0E0EB5EFE4F11
:100230009DE494CF6091120180916F01861B990B10
:1002400021E043E08B5E9E4F0E94D60380916F01B8
:100250008B5F73CF6091120180916F01861B990BA8
:1002600044E08B5E9E4F0E94CD03B4CFC09111013C
:10027000EFEFEC0FE83008F043C0F0E0E85CFB4F34
:100280000C94220460911201611103C05C9AC0E0D9
:1002900027CF80916F01861B990B23E046E08B5E90
:1002A0009E4F0E94D60380916F01865F46CF80915A
:1002B0001201811114C05C9A6091120180916F014A
:1002C000861B990B24E044E08B5E9E4F0E94D60370
:1002D00080916F01875F90911201891B0FC05D9A19
:1002E000EBCF8091120181110BC080916F01E82F3B
:1002F000F0E0EB5EFE4F9EE490838F5F80936F0192
:10030000C1E0EECE809112018111FACF80916F0190
:10031000E82FF0E0EB5EFE4F95E4EECF6091120126
:1003200080916F01861B990B22E044E08B5E9E4F0B
:100330000E94D60380916F01895FCDCF6091120139
:1003400080916F01861B990B22E043E08B5E9E4FEC
:100350000E94D60380916F018A5FBDCF8091110109
:10036000813071F6C0911201CC2309F4B9CE80918D
:100370006F018C1B990B23E046E06C2FFCCE9C0197
:1003800090E080E0F901E80FF91F108201968A35AC
:100390009105C1F7265A3F4FF90110820895109236
:1003A000C50087E18093C400E2ECF0E080818660C4
:1003B0008083E1ECF0E080818861808380818068C7
:1003C000808308958AB18C6F8AB98BB183708BB9A1
:1003D0000E94CF0180E791E00E94BF011092CC0102
:1003E00085E080931401789484E0F82E9DE0E92E56
:1003F000C5E011E020E5D22ED2E003E08091CC01EF
:10040000882331F08091CC01809313011092CC01AC
:1004100080911401833009F4BCC0D0F4813081F1A3
:10042000823009F47CC08111E9CF9091130194329C
:1004300061F480916F01E82FF0E0EB5EFE4F908356
:100440008F5F80936F011093140110921301D6CF28
:10045000843009F4FEC0853089F685E191E00E9480
:10046000BF011092CD01109210011092CE01109296
:100470001101109212011092130110921401BECFBB
:1004800090911301992309F4B9CF20916F01E22FC4
:10049000F0E0EB5EFE4F90832F5F20936F01209181
:1004A000CD0129272093CD01D09217019C3269F606
:1004B00090911801973491F490911901973441F576
:1004C00090911A01913421F58093CE018091110110
:1004D0008F5F80931101D0931401B7CF923559F4F7
:1004E000809119018D34A1F480911A01833481F433
:1004F000D093CE01EBCF9A3559F480911901843411
:1005000039F480911A01813419F40093CE01DECFC1
:100510008091CE018111DACFC093140196CF8091E2
:100520001301882309F46ACF843221F090916F017E
:100530009A3518F0C093140161CF8C3211F08A32D1
:10054000E1F40E9453008823A9F3809111018F5F89
:10055000809311011092120180916F01909113010B
:10056000E82FF0E0EB5EFE4F90838F5F80936F018A
:100570009A3249F40093140168CF809112018F5F81
:1005800080931201E9CF8091CD0189278093CD011D
:100590005CCF80911301882309F430CF843251F26B
:1005A0008A3241F290916F019A3520F68D30C9F56B
:1005B000209110018091CD012813AECF81E0E0E0C1
:1005C000292F30E0B9016150710906C04B5E5E4FC2
:1005D000DA014C91E4278F5F482F50E04617570708
:1005E000ACF32B5E3E4FAE2FA295AF70B0E0A050A3
:1005F000BF4F8C91D9018C93A1E0A90FB0E0AB5E05
:10060000BE4FEF70F0E0E050FF4F80818C93E2E04E
:10061000E90FF0E0EB5EFE4FE0829D5F90936F018B
:1006200014CF8A3059F4E92FF0E0EB5EFE4F80835F
:100630009F5F90936F01F092140107CF86FD875062
:10064000909110019295907F8F70892B809310016B
:10065000FCCEC090CB01C110D1CE80E791E00E94CA
:10066000BF018C2D90E0FC01EB5EFE4F208121113B
:1006700011C01093CB01809170018093C6008091CE
:10068000C10080628093C100C09314018BB183705C
:100690008BB9B4CE80599E4FFC012083C394E1CF27
:1006A0008F938091C6008093CC018F9118951F92F3
:1006B0001FB61F9211248F93EF93FF93E091CA010D
:1006C000EF5FE093CA01F0E0E059FE4F808188239C
:1006D00049F08093C600FF91EF918F911F901FBE4C
:1006E0001F9018958091C1008F7D8093C10010925A
:1006F000CB01F1CF9C01FC01CF014191442311F0CA
:100700004E32D1F7821B930B08959C01842F861BD8
:10071000042E000C550B90E060E347FD0895D901CD
:10072000A40FB51F4817590754F0FA01E81BF90B3D
:10073000E20FF31F70817C9341505109EECF6C930F
:10074000FBCFFC01641B20E050E070E0822F022E02
:10075000000C990B481759070CF408958E0F9F1F32
:10076000DC01A60FB71F3C91DC013C932F5FEECF5D
:100770009C0150E070E3862F062E000C990B841725
:1007800095072CF0240F351FF90110820895820F70
:10079000931FFC0170836F5FEECF641731F0641715
:1007A00010F40C9485030C94A1030895DF92EF924A
:1007B000FF920F931F93CF93DF938C01C62FD42EFC
:1007C000E22E662351F00E947A03FF24FA94FC0E75
:1007D000F81A8C1748F0F12C07C08EE2F8018083DC
:1007E0001182F12C80E0C1E0DC2F8D1549F0DD0D88
:1007F000D81B4D2F6C2F8D15A8F4C8010E948503BE
:10080000FE14C1F04E2D4F194D0FFE1478F46D2FCC
:10081000C801DF91CF911F910F91FF90EF90DF9072
:100820000C94B803C8010E94A103EACF040F111D64
:10083000F8011082DF91CF911F910F91FF90EF90FF
:10084000DF900895EE0FFF1F0590F491E02D0994BD
:10085000F894FFCF6B008900A300B300C3007000C1
:10086000CF00DE00EE000E01FE000E011A012A018B
:100870004201800157017101B30082018E019E0186
:1008800030313233343536373839414243444546C6
:00000001FF
